:1000000094EF08F068961200046ED8CF05F0E0CFA8
:1000100006F00001E9CF0CF0EACF07F0E1CF08F0DD
:10002000E2CF09F0D9CF0AF0DACF0BF0F3CF12F01C
:10003000F4CF13F0FACF14F0F5CF15F0F6CF16F099
:10004000F7CF17F000C00EF001C00FF002C010F0A3
:1000500003C011F0F2A630EF00F0F2B07CEF06F032
:10006000A0AA36EF00F0A1BA43EF06F00EC000F0F0
:100070000FC001F010C002F011C003F00CC0E9FF86
:1000800007C0EAFF078E08C0E1FF09C0E2FF0AC00F
:10009000D9FF0BC0DAFF12C0F3FF13C0F4FF14C086
:1000A000FAFF15C0F5FF16C0F6FF17C0F7FF0450A2
:1000B00006C0E0FF05C0D8FF1000F76ACA0FF66E51
:1000C000000EF7220900F55012000003FFFFFFFFAA
:1000D000FFFFFFFFFFFFFFFFFFFFF76AEA0FF66E6C
:1000E000000EF7220900F55012000800030000007E
:1000F0000000000000000000000000000000000000
:1001000000000000000000000000F76A1A0FF66E01
:10011000010EF7220900F55012000600FF0901A1A7
:1001200001190129081580257F750895028102199A
:10013000012908750895029102C0F76A4A0FF66E08
:10014000010EF7220900F55012000000F76A5C0F5B
:10015000F66E010EF7220900F55012002000F76A32
:100160006E0FF66E010EF7220900F550120009021B
:100170002900010100803209040000020300000090
:100180000921000100012220000705810303000A64
:100190000705010303000A00F76AA80FF66E010EB7
:1001A000F7220900F55012000100F76ABA0FF66E47
:1001B000010EF7220900F55012001200F76ACC0F69
:1001C000F66E010EF7220900F5501200120110011F
:1001D00000000008610420000001010200016D928E
:1001E000699468A402D06894FCD768984FEF06F031
:1001F000080E0401016F040E556E100E55C003F475
:10020000026F880E006F046B040E076F180E066FE6
:100210000001120070A002D0EBDF7090689A56EFD8
:1002200006F06A6A68925BEF06F0619160BF6181D7
:10023000609F6051100803E2000E016E16D061A1AC
:100240000BD0036A605139DFFF0802E1000E01D0D4
:10025000010E016E0AD009D0036A60512EDFFF083B
:1002600002E1000E01D0010E016E1200036A5F5020
:10027000700FE96E0F0E0320EA6EEF6A5FC060F048
:10028000D4DF015218E05F50080DF350616BE96E46
:10029000040E6125EA6EEF6A5F50080DF350616B42
:1002A000606F040E6027000E612360C0E9FF040E3A
:1002B0006125EA6EEF6A1200010E5E6E5E500F0855
:1002C00005E35EC05FF0D2DF5E2AF8D712002B6A2A
:1002D0002A6A546A54520AE1036A54502C0FE96E98
:1002E000000E0320EA6EEF6A542AF4D7216A010E49
:1002F000226E206A12006B6A696A6A6A686A6E6AAC
:10030000706ADADFE4DF160E706E68A602D07ADE5D
:10031000FCD79F0E6B6E3D0E696E6D9869DF030E04
:10032000256E60EF06F0698469986D8265EF06F0CE
:10033000689C6AEF06F05AC026F012002668120088
:100340005DC001F05CC000F05C66012A0900F5CFD9
:10035000EEFF002EFBD7012EF9D7F86A1200586A7B
:100360002A502B103EE0585007083BE32350FC0F67
:1003700026E2040FFCEF01F029C003F02850EFDE65
:10038000596E1DD029C003F02850BFDE596E17D01A
:10039000BE0E28245A6E7F0E29205B6EF86AF76E17
:1003A0005AC0F6FFEA6A590EE96E5D6A010E5C6E8C
:1003B000C7DF05D029C003F0285000DF596E282A76
:1003C000D8B4292A2A50D8B42B062A065850582ABD
:1003D000036A180FE96E040E0320EA6E59C0EFFF9E
:1003E000BFD72A502B1004E15850080801E0206ABA
:1003F00058C05AF0A0DF1200E824F76AF736130F4E
:10040000F66E040EF7220A00F550FA6E0800F55059
:10041000F96E780384039003B403576A296A286A43
:10042000236A04011351010A000109E0030A0DE0E7
:10043000010A0FE0220A41E0030A58E073D02B6A58
:10044000120E2A6E030E236E6FD02B6A290E2A6EAF
:100450006BD0020E236E576A04011251575C1AE2E8
:10046000BE0E2824586E7F0E2920596EF86A59C096
:10047000F7FF58C0F6FFEA6A5A0EE96E5D6A010E90
:100480005C6E00015DDF5A502826000E2922572A93
:10049000E3D70401BE0E2824586E7F0E2920596E22
:1004A000F86AF76E58C0F6FFEA6A2A0EE96E5D6ACE
:1004B000010E5C6E000144DF37D0036A0401125163
:1004C000000173DE036A286E03C029F0283C02D0C5
:1004D00029520AE029C003F0285041DE036A2A6E3F
:1004E00003C02BF021D002D029DF2DD0036A0401F4
:1004F0001451000122DE036A286E03C029F0283C53
:1005000002D029520DE0010E236E036A040114513A
:1005100000011CDE036A2A6E03C02BF005D002D056
:100520000DDF11D00BDF0FD00401175308E12B5260
:1005300003E12A50165D03E22B6A16C42AF0010E6D
:10054000206E00010CDF1200565204E1040E256EED
:10055000B3DEB3D0050E256E040E596E200E586E14
:10056000010E576E57500F08D8A0A7D057C05FF0A4
:100570007DDE5A6A036A5750A0DDFF084FE0040E83
:100580005A6ED8905734036AA8DD0900F5CF03F0FE
:100590005B6E03C05CF05750080DF3505F6A5E6EEF
:1005A000010E5E24016E000E5F20036E01C0E9FFA4
:1005B000040E0324EA6E5BC0EFFF5750080DF350A2
:1005C0005F6A5E6E020E5E24016E000E5F20036E97
:1005D00001C0E9FF040E0324EA6E59C0ECFFED529E
:1005E00058C0EFFFD8905734036A77DD0900F5CF84
:1005F00003F0582603505922880E5D6E5CA001D08E
:100600005D805CA201D05D825750080DF3505F6A97
:10061000E96E040E5F24EA6E5DC0EFFF036A575077
:100620004CDDFF0834E05A825750080DF3505F6AE2
:100630005E6E040E5E26000E5F22020E5E24016EC8
:10064000000E5F20036E01C0E9FF040E0324EA6E72
:1006500059C0ECFFED5258C0EFFFD8905734036AF1
:100660003CDD0900F5CF03F05826035059225750BE
:10067000080DF3505F6A5E6E040E5E26000E5F2268
:100680005EC0E9FF040E5F24EA6E400EEF6E5A5022
:10069000060802E10E0E5A6E036A57500EDD01087D
:1006A00001E05A88036A5750700FE96E0F0E03205D
:1006B000EA6E5AC0EFFF572A55D7ACEF03F004019A
:1006C0001151000A00010DE0010A14E0020A1FE0C6
:1006D000060A29E0030A2EE00E0A2EE0010A32E0A3
:1006E00040D022C018F40401196B020E5A6E0001AA
:1006F00022DE38D00401122D07D0010E22165A6ACC
:10070000000119DE03D00401000118DE2BD0040122
:10071000122D06D022825A6A00010DDE03D0040198
:1007200000010CDE1FD0020E206E12C427F05A6AA0
:1007300002DE18D072DE16D021C018F4010E5A6EF7
:10074000FADD10D004011251010809E312C421F0AE
:1007500012C456F00001F8D65A6AEDDD040100011A
:1007600001D0ECDDC5EF04F021C056F004011151B9
:10077000000A000107E00A0A0DE0010A28E00D0A5C
:1007800038E039D00401186B196B020E5A6E000163
:10079000D2DD32D0565219E0010E565C036AFCDC01
:1007A000016E0401145DD8A002D000010ED0036ACE
:1007B00014512C0FE96E000E0320EA6EEFCF18F4EF
:1007C000010E5A6E0001B7DD01D0B8DD15D05652CA
:1007D0000EE0036A040114512C0FE96E000E032091
:1007E000EA6E12C4EFFF5A6A0001A5DD01D0A6DD52
:1007F00003D013DE01D0A2DDC5EF04F0579056BE42
:100800005780569E57A011D05650080DF350596A84
:10081000586E040E5826000E592258C0E9FF040EE7
:100820005924EA6E880EEF6E09D05650080DF35029
:10083000596AE96E040E5924EA6EEF6A036A56504B
:10084000700F016E0F0E032201C0E9FF03C0EAFF23
:10085000EF908BEF04F0579056BE5780569E57A0EE
:1008600011D05650080DF350596A586E040E582690
:10087000000E592258C0E9FF040E5924EA6E840E76
:10088000EF6E0AD05650080DF350596AE96E040E07
:100890005924EA6E840EEF6E91EF04F0579056BE25
:1008A0005780569E57A011D05650080DF3505A6AE3
:1008B000596E040E5926000E5A2259C0E9FF040E43
:1008C0005A24EA6EEFCF58F00AD05650080DF35074
:1008D0005A6AE96E040E5A24EA6EEFCF58F058AE09
:1008E00002D058B402D0000E01D0010E016E9BEF71
:1008F00004F014C460F099DC015228E004011151A5
:10090000010A000105E0020A09E0030A0DE01DD01A
:1009100014C456F073D75A6A0EDD18D014C456F0BA
:100920009AD75A6A08DD12D00401186B196B14C4E7
:1009300056F00001B3D7015204E0010E0401186F14
:100940000001020E5A6EF7DC01D0F8DCC5EF04F0AE
:10095000040111510001F2DCC5EF04F0206A04012A
:1009600010517F0B000A000107E0010A07E0030AAB
:1009700007E0230A07E008D0A2D607D0F5D605D0B5
:10098000B8D703D0E5D701D0D9DCF3EF05F0565046
:10099000080DF3505C6AE96E040E5C24EA6EEFCF3A
:1009A00058F05750020806E158AC02D0576A02D0FE
:1009B000010E576E5750030813E1840E586E5650BF
:1009C000080DF3505C6A5B6E040E5B26000E5C2221
:1009D0005BC0E9FF040E5C24EA6E840EEF6E07D064
:1009E000572C03D0C80E586E02D0880E586ED8907F
:1009F0005634036A6DEC00F00900F5CF03F0596E30
:100A000003C05AF05650080DF3505C6A5B6E010E3D
:100A10005B24016E000E5C20036E01C0E9FF040E32
:100A20000324EA6E59C0EFFF5AA001D058805AA2A1
:100A300001D058825650080DF3505C6AE96E040EDE
:100A40005C24EA6E58C0EFFF1200036A5B50700F1F
:100A5000E96E0F0E0320EA6EEF5212E05B50080DB4
:100A6000F3505D6A5C6E040E5C26000E5D225CC075
:100A7000E9FF040E5D24EA6EEFCF5EF05EAE02D0B9
:100A8000000E01D0010E016E120056C05BF0DDDFDA
:100A900001526EE05650080DF3505C6A5B6E040E16
:100AA0005B26000E5C22010E5B24016E000E5C20B2
:100AB000036E01C0E9FF040E0324EA6E57C0EFFF86
:100AC0005950020817E15650080DF3505C6A5B6EEE
:100AD000040E5B26000E5C225BC0E9FF040E5C2462
:100AE000EA6EEFCF5AF05AAC02D0596A02D0010E2A
:100AF000596E13D05950040810E15650080DF350A8
:100B00005C6AE96E040E5C24EA6EEFCF5AF05AACD0
:100B100003D0010E596E01D0596A592C03D0480EEA
:100B20005A6E02D0080E5A6E5650080DF3505C6A89
:100B30005B6E040E5B26000E5C225BC0E9FF040EB8
:100B40005C24EA6E5AC0EFFF5650080DF3505C6A01
:100B50005B6E040E5B26000E5C225BC0E9FF040E98
:100B60005C24EA6EEF508009EF6E010E016E02D038
:100B7000000E016E1200565200E1120057C06EFFC7
:100B8000575203E0040E256E02D0020E256ECEEF02
:100B900005F0216A206A27C057F0F0D7DBEF05F097
:100BA000565209E1202C03D0AFEC01F004D02050C4
:100BB0000208D8B4EED712002430546E54325432A6
:100BC0001F0E5416245241E1040100513C0B556E96
:100BD000430E0017555034081EE10451800B01E00C
:100BE000046B0001BBD66D98263C05D0566A030EF7
:100BF000576ECDDE0ED0566A020E576EC8DE2650F6
:100C0000FE0807E0566A586A26C057F0040E596E6F
:100C10003CDF18D004015550040815E1566A000164
:100C2000AADF566A020E576EB2DE2650FE080AE0B0
:100C3000263C01D007D0566A586A26C057F0010EEC
:100C4000596E23DF04011CD00001245004080EE17A
:100C50002668566AA5DF263C01D007D0566A586A36
:100C600026C057F0020E596E10DF09D024B404D00C
:100C700054C056F080DF03D054C056F091DF040119
:100C8000000174EF06F0A19A2552D8B433D068520F
:100C9000D8B430D068A403D069B4EFEF00F06DB2DF
:100CA00029D068AA03D069BA0AEF01F068A203D07C
:100CB00069B211EF01F068A003D069B07BEF01F0D9
:100CC00068A803D069B893EF01F068AC03D069BCA1
:100CD00098EF01F0536A68A608D069A606D06CCFD9
:100CE00024F002EC00F068D701D004D05350532A0E
:100CF0000308F1E236EF00F093688150F00B536E79
:100D00005350E00A1DE0300A1FE0100A22E0700A8A
:100D100025E0100A28E0300A2BE0100A2EE0F00A45
:100D200031E0100A34E0300A37E0100A3AE0700A85
:100D30003DE0100A40E0300A43E0100A46E04AD0A5
:100D4000010E2E6E306A48D0020E2E6E010E306EED
:100D500043D0030E2E6E020E306E3ED0040E2E6E69
:100D6000030E306E39D0050E2E6E040E306E34D068
:100D7000060E2E6E050E306E2FD0070E2E6E060E4E
:100D8000306E2AD0080E2E6E070E306E25D0090E5A
:100D90002E6E080E306E20D00A0E2E6E090E306EAA
:100DA0001BD00B0E2E6E0A0E306E16D00C0E2E6E51
:100DB0000B0E306E11D00D0E2E6E0C0E306E0CD050
:100DC0000E0E2E6E0D0E306E07D00F0E2E6E0E0E06
:100DD000306E02D02E6A3068010E2F6EF29036EF20
:100DE00000F06D926D6A696A080E6F6E945030095A
:100DF000946E256A196AF2BE198EF29E67EC01F0B4
:100E000019BEF28E05EF07F0ECD730EF07F0196A44
:100E1000F2BE198EF29E67EC01F019BEF28E6D9251
:100E20006D6A6D8C00D000D000006D9C140E6F6E4A
:100E3000696A6D86010E256E21EF07F06DB601D04F
:100E4000E6D7252C0BD06DBA09D0686A696AA08AEA
:100E5000C00EF212110E696E020E256E1200D4D76A
:100E6000EDDF25500208FCE1CFEF08F0215202E14E
:100E70000400FCD7D1EF08F0EA6A430EE96EEF50A8
:100E80000EE0010E016E006A002EFED7012EFBD788
:100E90004A0E006E002EFED700D0EF2EF2D71200C1
:100EA000416A036A4150320FE96E000E0320EA6E78
:100EB000EFCF42F0956A42C08CFF010E4126640ECE
:100EC000436EDADF41500E08ECE212002150016E51
:100ED000E0EF08F0196AF2BE198EF29E41C05BF095
:100EE000B4DD19BEF28E015242E04150080DF350BC
:100EF0004A6A496E040E4926000E4A22020E49240F
:100F0000016E000E4A20036E01C0E9FF040E0324A7
:100F1000EA6EECCF48F0ED52EFCF47F048C0EAFF61
:100F200047C0E9FF43C0E2FF42C0E1FF45C002F015
:100F300044C001F0015202E0022A02D0025206E04F
:100F4000E6CFEEFF012EFCD7022EFAD7196AF2BEC9
:100F5000198EF29E41C056F045C058F044C057F07B
:100F600046C059F092DD19BEF28E015002D0000E3B
:100F7000016EEEEF08F0036A4150700FE96E0F0E3C
:100F80000320EA6EEF520DE04150080DF350436A22
:100F9000426EE96E040E4324EA6EEFCF44F044AE95
:100FA00002D0000E01D0010E016EF2EF08F04650A3
:100FB000080DF350516A506E020E5024016E000E5F
:100FC0005120036E01C0E9FF040E0324EA6EECCF4A
:100FD0004CF0ED52EFCF4BF04650080DF350516AF4
:100FE000506E010E5024016E000E5120036E01C0A0
:100FF000E9FF040E0324EA6E4F6AEFCF4EF046502D
:10100000080DF350516AE96E040E5124EA6EEFCFD9
:101010004DF04DA001D04F804DA201D04F824F50D6
:101020004A5C08E303E149504E5C04E24FC04AF0D9
:101030004EC049F048C0EAFF47C0E9FF4CC0E2FF9C
:101040004BC0E1FF4AC002F049C001F0015202E08A
:10105000022A02D0025206E0E6CFEEFF012EFCD7B4
:10106000022EFAD749C001F04AC002F043EF08F05F
:1010700041C046F043C048F042C047F045C04AF086
:1010800044C049F094D702C045F001C044F0196A49
:10109000F2BE198EF29E41C056F0020E576E77DCFA
:1010A00019BEF28E44C001F045C002F0FDEF08F019
:1010B0004150000A05E0010A06E0110A07E013D0DA
:1010C000956A8C6A29D0956A8C6826D0036A31505B
:1010D000320FE96E000E0320EA6EEFCF42F0956A00
:1010E00042C08CFF19D03050FF0816E0036A305020
:1010F000320FE96E000E0320EA6EEFCF42F0956AE0
:1011000042C08CFF020E426EFA0E436EB5DE422ED6
:10111000FBD7956A8C6A3068010E312631500E0873
:1011200001E2316A00EF09F0F86AD09E078E2F6A5B
:101130003068316AC150C00B0F09C16E070EB46E22
:101140001A6A1B6A100E2D6E2E6A210E326E220E46
:10115000336E240E346E280E356E300E366E410E10
:10116000376E420E386E440E396E480E3A6E500E8F
:101170003B6E810E3C6E820E3D6E840E3E6E880E7E
:101180003F6E900E406EFF0E936E000E956EF286CF
:10119000C00EF21294908B8094928B9260D64EDEA9
:1011A00065D694908B9094928B827ADE79DE040ED1
:1011B000416EFA0E436E60DE412EFBD73FDE86D6CF
:1011C00001521BE02F520BE0010E416E436A2E0EBE
:1011D000426E456A020E446E466E7CD62F6A010E40
:1011E000416EC9D6015209E0010E416E436A2D0ECF
:1011F000426E456A020E446E3BD72DC041F058D76F
:0E1200000A0E436E39DEDAD7000E016E0300CF
:027FBE000403BA
:107FC00009040803460053004500220355005300EE
:107FD00042002000530054005200450041004D0073
:107FE000200044005200450043004B0014033100C0
:107FF00032003300340035003600370038003900D5
:020000040030CA
:0E00000024CE3E1E0087A1000FC00FE00F406F
:00000001FF
;PIC18F4550
;CRC=EB95  CREATED="15-ago.-21 16:49"
